:100000000C9466000C948E000C948E000C948E0060
:100010000C948E000C948E000C948E000C948E0028
:100020000C948E000C948E000C948E000C948E0018
:100030000C948E000C948E000C948E000C948E0008
:100040000C94820A0C948E000C9473090C944D0944
:100050000C948E000C948E000C948E000C948E00E8
:100060000C948E000C948E00000000080002010029
:100070000003040700000000000000001112131428
:1000800015160A0B0C0D0E0F0001020304050000EB
:100090000000250028002B0000000000240027009D
:1000A0002A000404040404040404020202020202FA
:1000B000030303030303010204081020408001022C
:1000C000040810200102040810208C1211241FBE05
:1000D000CFEFD8E0DEBFCDBF11E0A0E0B1E0E2E5B8
:1000E000F7E202C005900D92A83EB107D9F724E0CF
:1000F000A8EEB1E001C01D92AA38B207E1F710E006
:10010000C6E6D0E004C02197FE010E949313C536D5
:10011000D107C9F70E94B50F0C94A7130C940000E7
:10012000CF93DF931F92CDB7DEB76983DC01ED91EA
:10013000FC910280F381E02D41E050E0BE016F5F51
:100140007F4F09950F90DF91CF910895FC01818D2C
:10015000928D0895FC018489958908952BE831E0FA
:10016000FC0131832083FB014089518962897389B5
:10017000FC0142835383648375830895DC01ED9110
:10018000FC91028CF38DE02D099480E00895CF93CB
:10019000DF93FC01218D328D2115310519F48FEF8C
:1001A0009FEF11C0EC014217530708F0A901888D99
:1001B0000E94490C1816190694F7298D3A8D281BB0
:1001C000390B3A8F298FDF91CF9108950F931F93A9
:1001D000CF93DF931F92CDB7DEB7FC01218D328D17
:1001E000232B61F08C0141E050E0BE016F5F7F4F37
:1001F000808D0E94490C181619061CF08FEF9FEF96
:1002000008C0F801818D928D0197928F818F89812D
:1002100090E00F90DF91CF911F910F910895CF93B0
:10022000DF93EC01888D843061F00E949C0CE88D96
:10023000F0E0EE0FFF1FE751FE4F1182108284E0C5
:10024000888FDF91CF9108959B0190E00496982FBD
:100250008827642F820F931F0C94270C0F931F93F2
:10026000CF93DF931F92CDB7DEB790E00496982F1F
:1002700088278C01060F171F0E94EF0A8FE00E944B
:10028000210B812F0E94210B802F0E94210B80E0E7
:100290000E94210B89830E94ED0A89810F90DF91D2
:1002A000CF911F910F91089508958CBD9DBD089524
:1002B000BF92CF92DF92EF92FF920F931F93CF9353
:1002C000DF93CDB7DEB728970FB6F894DEBF0FBE29
:1002D000CDBF8C01F801818D928D892B49F0D80119
:1002E000ED91FC910680F781E02DC8010995F2CFD0
:1002F000B08C80E590E00E945501E12CF12C8B2D13
:100300000E94F10A6C01892B21F08B2D0E94F10AC9
:100310007C01EC14FD0499F71E141F045CF548E001
:1003200050E0BE016F5F7F4FD80158968C910E94BC
:10033000490C9C0118161906DCF489819A81AB815D
:10034000BC81F801808B918BA28BB38B8D8190E067
:10035000982F88272E81820F911D958B848B2F815A
:1003600030E0322F22278885280F311D328F218FD0
:10037000C90102C080E090E028960FB6F894DEBF75
:100380000FBECDBFDF91CF911F910F91FF90EF90E6
:10039000DF90CF90BF9008957F928F929F92AF92FF
:1003A000BF92CF92DF92EF92FF920F931F93CF9362
:1003B000DF935C014B016A01FC0106891789708C8F
:1003C00080E590E00E945501C0E0D0E0872D0E94BA
:1003D000090B7C01892B21F0872D0E94090BEC0170
:1003E000CE15DF0599F7CC15DD0578F4C0E0D0E037
:1003F000872D0E94090B6C01892B21F0872D0E940B
:10040000090BEC01CC15DD0599F764E270E0872D4E
:100410000E942E01E82EF12C65E270E0872D0E94EB
:100420002E01FE2CEE24E82AE701C00FD11F9E0109
:100430003770E72CF12CC701880F991FAC0144508D
:100440005E4F7A01FA0180819181820F931FA90189
:100450004C0D5D1D4130584090F000E018E0021B4B
:10046000130BA801B4010E94F80BA601401B510B0D
:10047000B401600F711FF7018081918102C0A60154
:10048000B4010E94F80BCC0DDD1D4D2F64E270E02D
:10049000872D0E9424014C2F65E270E0872D0E9479
:1004A0002401F501868997898C0D9D1D978B868B7C
:1004B000C601DF91CF911F910F91FF90EF90DF90D8
:1004C000CF90BF90AF909F908F907F900895CF93E3
:1004D000FC01C08D80E590E00E94550160E270E073
:1004E0008C2F0E94A50F62E070E08C2F0E942E01DD
:1004F00084FD15C062E070E08C2F0E942E0183FF06
:1005000009C048E162E070E08C2F0E94240180E085
:1005100090E00DC080E590E00E945501E4CF40E1FD
:1005200062E070E08C2F0E94240181E090E0CF9186
:100530000895EF92FF921F93CF93DF93EB017A011F
:10054000FC01178A168A108D8A81811109C08B815E
:10055000811106C08C81811103C08D81882319F11E
:10056000E114F10401F180E590E00E945501BE0123
:100570006E5F7F4F812F90E0982F882744E050E0F6
:10058000845F9B4F0E94F80B4F2D60E170E0812F3C
:100590000E9424014E2D61E170E0812F0E94240110
:1005A00081E090E002C080E090E0DF91CF911F9168
:1005B000FF90EF900895EF92FF921F93CF93DF93F8
:1005C000FC01208D243011F080E022C07B01EC0181
:1005D00010E080E590E00E94550163E070E0812F1B
:1005E0000E942E01811102C0188F05C08831E1F3ED
:1005F0001F5F143071F7888D843031F3FD86EC86EF
:100600001A8E198E20E0A70162E00E94B00C81E0F2
:10061000DF91CF911F91FF90EF9008954F925F92DD
:100620006F927F928F929F92AF92BF92CF92DF9202
:10063000EF92FF920F931F93CF93DF93CDB7DEB767
:10064000EE970FB6F894DEBF0FBECDBF5C018B01F5
:100650004A018BE891E09A8389831C861B8648EEC9
:1006600053E060E070E04D875E876F87788B25E60A
:1006700031E03A872987988F8F8B198E1A8E1B8EBF
:100680001C8E24E029A399AB88AB1AAA1BAA1CAA2A
:100690001DAA8091AB029091AC02A091AD02B091E5
:1006A000AE028EA39FA3A8A7B9A78B839C83AD831B
:1006B000BE8318861F82F80120E080E090E06AE0A7
:1006C0003191332319F140ED430F4A3080F4689F94
:1006D000A001699F500D1124CA01C097830F911D7D
:1006E00037FD9A958F3F910559F350F32BC03E3259
:1006F00049F5233039F1A2E3B0E0AC0FBD1FA20FE2
:10070000B11D8C932F5F80E090E0DACF2330D1F4DD
:100710008DABD501ED91FC910288F389E02D8BE83A
:1007200091E09DA38CA38AA99BA9ACA9BDA98EA386
:100730009FA3A8A7B9A7A401BE016C5D7F4FC50107
:10074000099530C24B815C816D817E818091B302BD
:100750009091B402A091B502B091B6024817590722
:100760006A077B0709F41CC20E94760A6F7077271C
:100770007C5FCE0109960E94DB02813009F00DC238
:100780008BE891E09DA38CA38B819C81AD81BE8180
:100790008EA39FA3A8A7B9A745E350E0BE016C5D57
:1007A0007F4FCE0109960E949902892B19F400E02F
:1007B00010E07EC10E94760A78876F8376276727CC
:1007C00076277DA36CA342E050E0BE016C5D7F4FB5
:1007D000CE0109960E94CC0181E090E09FAB8EABE8
:1007E00042E050E0BE016A5C7F4FCE0109960E9454
:1007F000CC0180E091E09FAB8EAB42E050E0BE01C7
:100800006A5C7F4FCE0109960E94CC011FAA1EAAE6
:1008100042E050E0BE016A5C7F4FCE0109960E9423
:10082000CC0142E050E0BE016A5C7F4FCE010996E8
:100830000E94CC0142E050E0BE016A5C7F4FCE01D5
:1008400009960E94CC017801D7018C91882319F177
:10085000F8017F018191811117C06701C01AD10A87
:100860001C141D04A4F4C8AE41E050E0BE01685C55
:100870007F4FCE0109960E94CC01A601B801CE019E
:1008800009960E94CC0103C08E3219F7E6CF87018A
:100890000F5F1F4FD9CF18AE41E050E0BE01685C3A
:1008A0007F4FCE0109960E94CC0100E011E01FAB02
:1008B0000EAB42E050E0BE016A5C7F4FCE0109966C
:1008C0000E94CC011FAB0EAB42E050E0BE016A5C5F
:1008D0007F4FCE0109960E94CC01CE0109960E945D
:1008E0006702892B09F463CF63E0E62EF12C0E94A6
:1008F000760A2B013C01CE0109960E945801181678
:100900001906A4F00E94760ADC01CB01841995092E
:10091000A609B70989389341A105B105C8F462E376
:1009200070E080E090E00E943C0AE5CF4B815C8162
:100930006D817E81898D9A8DAB8DBC8D481759074D
:100940006A077B0741F48D8D9E8DC59721F406C003
:100950002FEF3FEFA4C02EEF3FEFA1C08AA19BA1D4
:100960000C970CF4B2C04CE050E0BE016C5D7F4FC0
:10097000CE0109960E94C7008EA190E0982F88278B
:100980002FA1822B9BAF8AAF2CA130E0322F2227E0
:100990004DA1242B4F8158854217530709F092C06F
:1009A00097FF90C08F709270892B09F0F3C00AA551
:1009B00010E0102F00278BA5082B0115110509F455
:1009C000E6C0C12CD12C88A590E0982F882729A5B6
:1009D000822BC816D90608F47BC0C12CD12C41E06B
:1009E00050E0BE01645C7F4FCE0109960E94C700B3
:1009F0008CAD982F907C09F0A5C0811197C08CAD6B
:100A00008111EDCF42E050E0BE01685C7F4FCE0126
:100A100009960E94C70042E050E0BE016A5C7F4F29
:100A2000CE0109960E94C700CE0109960E94E600F9
:100A3000CE0109960E94E600CE0109960E94E600CA
:100A4000CE0109960E94E60042E050E0BE01665CDD
:100A50007F4FCE0109960E94C70088AD99AD8115E0
:100A6000914009F075C02EA93FA9322723273227CC
:100A70002130310509F06CC08AAD9BAD81159440E1
:100A800009F082C044E050E0BE016E5C7F4FCE01B1
:100A900009962DAF3EAF0E94C7002DAD3EAD890136
:100AA000B1E0EB1AF10821F02F3F3F4F09F41FCFBF
:100AB000CE0109960E940F010130110509F429CEDB
:100AC000C80170C02CEF3FEFEACF2DEF3FEFE7CF2B
:100AD00041E050E0BE016A5C7F4FCE0109960E9462
:100AE000C7008EA9811117C08EA98111F1CFCE0147
:100AF00009960E94E600CE0109960E94E600CE010A
:100B000009960E94E600CE0109960E94E600FFEFDA
:100B1000CF1ADF0A58CF8EA99FEF980F9EAB88237C
:100B200019F3CE0109960E94E600F5CF8CAD9FEF38
:100B3000980F9CAF882309F462CFCE0109960E94DA
:100B4000E600F4CFCE0109960E94E6001CAE57CF16
:100B5000612C712C8AAD9BAD982789279827681640
:100B6000790640F4CE0109960E94E6008FEF681ADC
:100B7000780AF0CFAFEFCA1ADA0AC016D10609F028
:100B80002ECF26EF3FEF8BCF27EF3FEF88CF2AEF17
:100B90003FEF85CF2BEF3FEF82CF80E090E002C0A8
:100BA0008EEF9FEFEE960FB6F894DEBF0FBECDBF6F
:100BB000DF91CF911F910F91FF90EF90DF90CF9039
:100BC000BF90AF909F908F907F906F905F904F906D
:100BD0000895CF93CFB7F8948091E801811124C094
:100BE000ECEAF0E08491E0ECF0E09491E82FF0E0A2
:100BF000EE0FFF1FE856FF4FA591B491EC91E9234A
:100C000021F461E08AE00E94A5098AE00E94860F33
:100C10008CB580618CBD8CB580648CBD8DE00E94EC
:100C2000860F8BE00E94860F8091E8018F5F809392
:100C3000E801CFBFCF9108952F923F924F925F92DC
:100C40006F927F928F929F92AF92BF92CF92DF92DC
:100C5000EF92FF920F931F93CF93DF93CDB7DEB741
:100C6000C950D1400FB6F894DEBF0FBECDBF8DB7CF
:100C70009EB7C95FDE4F99838883C750D1404FEF3D
:100C800050E0BE016F5F7F4F85E494E00E94C70093
:100C90004C016C01990FEE08FF08F7FE14C0E091BB
:100CA0000C02F0910D020190F081E02D6DE28CE0DC
:100CB00092E0099544275527BA014C195D096E0940
:100CC0007F092AE003C02AE0B701A6018CE092E088
:100CD0000E94BA0863E971E08CE092E00E94A508E6
:100CE00086E991E00E94730F8981A82EB12C96E0CD
:100CF000B594A7949A95E1F7982F990F990F92952B
:100D0000969596959370CA5FDE4F9883C650D140F2
:100D10008F70F82E2A803B80EC80082F10E0EDB712
:100D2000FEB7E01BF10B0FB6F894FEBF0FBEEDBF90
:100D30008DB79EB701966C013E0195E0690E711C5E
:100D40002601C2018C199D09801791074CF4F3010B
:100D500081913F01F20181932F010E945C0EF1CF3E
:100D6000AA94AB2821F08EE991E00E94730F0C5FEA
:100D70001F4FE1E0F0E0EC0FFD1FE00FF11F081541
:100D800019050CF053C040814F3FC9F3A42EB12C7C
:100D900084E0B594A7948A95E1F74F7062EB71E017
:100DA0008CE092E0C75FDE4F4883C950D1400E947B
:100DB000A5088A2D0E945C0E6FEB71E08CE092E03A
:100DC0000E94A5088A2D0E945C0EC75FDE4F4881F5
:100DD000C950D1408DE0A816B1042CF09CE0A91AAE
:100DE000B1080A0D1B1D242F30E04D30E0F0C90181
:100DF0000C97080F191FE1E0F0E0EC0FFD1FE00F6A
:100E0000F11F4E3061F44081E2E0F0E0EC0FFD1F95
:100E1000E00FF11F808190E0840F911D02C080815E
:100E200090E0080F191F020F131FA3CFCA5FDE4FF8
:100E3000E881C650D140E1112FC0211068C089EC73
:100E400091E00E94730F81E0C050DF4F8883C05053
:100E5000D14082E0CF5FDE4F8883C150D14080E433
:100E6000CD5FDE4F8883C350D140CE5FDE4FF88226
:100E7000C250D140CC5FDE4F3882C450D140CB5FEE
:100E8000DE4FE882C550D140960141E052E06F2D1F
:100E900070E4832D9E2D39C0CA5FDE4FF881C650A5
:100EA000D140F130A1F581E0281231C08EEC91E003
:100EB0000E94730F82ED91E00E94730FC050DF4FCC
:100EC0002882C050D140CF5FDE4F2882C150D14030
:100ED00085E4CD5FDE4F8883C350D140CE5FDE4FC7
:100EE000F882C250D140CC5FDE4F3882C450D1402E
:100EF00091E09E0DCB5FDE4F9883C550D1409601A7
:100F000041E051E06F2D75E4832D0E94730EC95F9F
:100F1000DE4FE881F981C750D1400FB6F894FEBF8B
:100F20000FBEEDBFC75FDE4F0FB6F894DEBF0FBE3A
:100F3000CDBFDF91CF911F910F91FF90EF90DF9088
:100F4000CF90BF90AF909F908F907F906F905F9069
:100F50004F903F902F900895CF92DF92EF92FF92A3
:100F60000F931F93CF93DF936C017A018B01C0E045
:100F7000D0E0CE15DF0589F0D8016D918D01D60145
:100F8000ED91FC910190F081E02DC6010995892B2E
:100F900011F47E0102C02196ECCFC701DF91CF9101
:100FA0001F910F91FF90EF90DF90CF900895FC017B
:100FB000918D828D981761F0828DDF01A80FB11D90
:100FC0005D968C91928D9F5F9F73928F90E00895B4
:100FD0008FEF9FEF0895FC01918D828D981731F06E
:100FE000828DE80FF11D858D90E008958FEF9FEFC2
:100FF0000895FC01918D228D892F90E0805C9F4F98
:10100000821B91098F73992708958CE092E00E94CA
:10101000F90721E0892B09F420E0822F0895FC01D3
:10102000848DDF01A80FB11DA35ABF4F2C91848D71
:1010300090E001968F739927848FA689B7892C93A6
:10104000A089B1898C9180648C93938D848D981341
:1010500006C00288F389E02D80818F7D808308950A
:10106000EF92FF920F931F93CF93DF93EC0181E0F8
:10107000888F9B8D8C8D981305C0E889F9898081B4
:1010800085FD24C0F62E0B8D10E00F5F1F4F0F73F0
:101090001127E02E8C8DE8120CC00FB607FCFACF9A
:1010A000E889F989808185FFF5CFCE010E940F087C
:1010B000F1CF8B8DFE01E80FF11DE35AFF4FF08257
:1010C0000B8FEA89FB898081806207C0EE89FF89E6
:1010D0006083E889F98980818064808381E090E081
:1010E000DF91CF911F910F91FF90EF900895CF93D3
:1010F000DF93EC01888D8823C9F0EA89FB89808120
:1011000085FD05C0A889B9898C9186FD0FC00FB6F1
:1011100007FCF5CF808185FFF2CFA889B9898C9132
:1011200085FFEDCFCE010E940F08E7CFDF91CF9171
:10113000089580E090E0892B29F00E940508811134
:101140000C94000008950E9499136115710579F0BF
:10115000FB0101900020E9F73197AF01461B570BC7
:10116000DC01ED91FC910280F381E02D099480E097
:1011700090E008954F925F926F927F92EF92FF926C
:101180000F931F93CF93DF93CDB7DEB7A1970FB621
:10119000F894DEBF0FBECDBF7C01FA01CB0119A2CE
:1011A000223008F42AE08E010F5D1F4F422E512C91
:1011B000612C712CBF01A30192010E945D13F90102
:1011C000CA01015011096A3014F4605D01C0695C04
:1011D000D8016C93232B242B252B61F7B801C70171
:1011E0000E94A508A1960FB6F894DEBF0FBECDBF32
:1011F000DF91CF911F910F91FF90EF907F906F90B3
:101200005F904F9008958F929F92AF92BF92CF922E
:10121000DF92EF92FF920F931F93CF93DF937C01A6
:10122000EB016C0182E0C80ED11C4701E5E08E0E97
:10123000911C00E010E0F60141916F0150E060E088
:1012400070E02AE0CE010E94BA085C01E881F981D1
:101250000190F081E02D6EE2CE0109958A0D9B1D73
:10126000080F191FC814D90431F7F701458150E060
:1012700060E070E02AE0CE010E94BA08800F911F62
:10128000DF91CF911F910F91FF90EF90DF90CF9062
:10129000BF90AF909F908F9008951F920F920FB6BE
:1012A0000F9211242F933F934F935F936F937F93EC
:1012B0008F939F93AF93BF93EF93FF938CE092E054
:1012C0000E940F08FF91EF91BF91AF919F918F9175
:1012D0007F916F915F914F913F912F910F900FBE32
:1012E0000F901F9018951F920F920FB60F92112416
:1012F0002F938F939F93EF93FF93E0911C02F091B4
:101300001D028081E0912202F091230282FD12C031
:101310009081809125028F5F8F7320912602821722
:1013200051F0E0912502F0E0E45FFD4F958F80934E
:10133000250201C08081FF91EF919F918F912F91A4
:101340000F900FBE0F901F90189590E0FC01E85988
:10135000FF4F3491FC01EA54FF4F2491FC01EE55FC
:10136000FF4FE491EE2309F43BC0332339F13330CE
:1013700091F038F43130A9F0323001F584B58F7D29
:1013800012C0373091F03830A1F03430B9F4809188
:1013900080008F7D03C0809180008F7780938000D4
:1013A0000DC084B58F7784BD09C08091B0008F7760
:1013B00003C08091B0008F7D8093B000F0E0EE0F0D
:1013C000FF1FE257FF4FA591B4918FB7F894EC91AE
:1013D000611103C020952E2301C02E2B2C938FBFAB
:1013E00008953FB7F8948091F8019091F901A09188
:1013F000FA01B091FB0126B5A89B05C02F3F19F05B
:101400000196A11DB11D3FBFBA2FA92F982F882784
:10141000820F911DA11DB11DBC01CD0142E0660FDF
:10142000771F881F991F4A95D1F7089508951F9334
:10143000CF93DF931F92CDB7DEB7FC01218D328DA4
:10144000232B99F0108D80E590E00E94550121E05A
:1014500041E050E0BE016F5F7F4F812F0E940B0F74
:101460000E945401898190E002C08FEF9FEF0F909E
:10147000DF91CF911F9108958F929F92AF92BF926B
:10148000CF92DF92EF92FF926B017C010E94F109F3
:101490004B015C01C114D104E104F104F1F00E949C
:1014A000F109DC01CB0188199909AA09BB09883E19
:1014B0009340A105B10570F321E0C21AD108E108FB
:1014C000F10888EE880E83E0981EA11CB11CC1149F
:1014D000D104E104F10419F7DDCFFF90EF90DF9024
:1014E000CF90BF90AF909F908F9008952FB7F894B2
:1014F0006091F4017091F5018091F6019091F701EE
:101500002FBF08951F920F920FB60F9211242F93A1
:101510003F938F939F93AF93BF938091F4019091EA
:10152000F501A091F601B091F7013091F30123E0AC
:10153000230F2D3720F40196A11DB11D05C026E80B
:10154000230F0296A11DB11D2093F3018093F40196
:101550009093F501A093F601B093F7018091F80103
:101560009091F901A091FA01B091FB010196A11DA2
:10157000B11D8093F8019093F901A093FA01B09303
:10158000FB01BF91AF919F918F913F912F910F9050
:101590000FBE0F901F901895CF93DF93EC019CB571
:1015A0009F7D9CBD9CB5937F9CBD9CB59C7F9CBD45
:1015B0009DB591609DBD89810E94A5098A899B89FD
:1015C0008230910538F0880F991F880F991F059771
:1015D0000197F1F7DF91CF9108952A9A08952A98FB
:1015E00008951F93CF93DF93182F66E270E00E9457
:1015F0002E01C82FD0E067E270E0812F0E942E01FB
:10160000DC2FCC279E01282BC901DF91CF911F91A0
:1016100008951F93CF93DF93182F60E270E00E942C
:101620002E01C82FD0E061E270E0812F0E942E01D0
:10163000DC2FCC279E01282BC901DF91CF911F9170
:1016400008958EBD00000DB407FEFDCF8EB5089540
:101650001F93CF93DF93EC0160E00E94CC0A81EEF0
:101660000E94210B182F61E0CE010E94CC0A812F2D
:10167000DF91CF911F910895FF920F931F93CF9306
:10168000DF931F92CDB7DEB78C01F62E60E0498361
:101690000E94CC0A8F2D8F7180620E94210BF82E40
:1016A0004981842F0E94210B61E0C8010E94CC0A6D
:1016B0008F2D0F90DF91CF911F910F91FF90089583
:1016C000CF92DF92EF92FF920F931F93CF93DF930E
:1016D00000D0CDB7DEB77C01062F142F60E0298340
:1016E0005A830E94CC0A802F8F7180620E94210B46
:1016F000082FC12E5A81D52E2981120F1C1531F0C9
:10170000F60181916F010E94210BF8CF61E0C701C2
:101710000E94CC0A802F0F900F90DF91CF911F91E4
:101720000F91FF90EF90DF90CF9008951F93CF938C
:10173000DF93EC01162F60E00E94CC0A812F8F719D
:101740000E94210B8FEF0E94210B182F61E0CE0128
:101750000E94CC0A812FDF91CF911F910895CF93E2
:10176000DF93EC0160E00E94960B81FD0EC0482FD4
:10177000426060E0CE010E943C0B65E070E080E0DA
:1017800090E0DF91CF910C943C0ADF91CF910895C6
:10179000CF92DF92EF92FF920F931F93CF93DF933D
:1017A000EC017A018B016C01C40ED51ECC15DD0550
:1017B000A9F00E94EF0A8FE00E94210B8D2F0E945A
:1017C000210B8C2F0E94210B219680E00E94210B7F
:1017D000F80181938F010E94ED0AE8CFC701DF91E4
:1017E000CF911F910F91FF90EF90DF90CF900895D0
:1017F000CF92DF92EF92FF920F931F93CF93DF93DD
:10180000EC017A018B016C01C40ED51ECC15DD05EF
:10181000A1F00E94EF0A80EF0E94210B8D2F0E9401
:10182000210B8C2F0E94210B2196F80181918F01B1
:101830000E94210B0E94ED0AE9CFC701DF91CF91F1
:101840001F910F91FF90EF90DF90CF9008951F931D
:10185000CF93DF9300D0CDB7DEB7182F6A8399837B
:101860000E94EF0A80EF0E94210B9981892F0E942C
:10187000210B812F0E94210B6A81862F0E94210B50
:101880000E94ED0A81E00F900F90DF91CF911F91A0
:101890000895AF92BF92CF92DF92EF92FF921F9383
:1018A000CF93DF93182F5B017A0180E590E00E94CF
:1018B0005501C0E0D0E0812F0E94F10A6C01892B14
:1018C00021F0812F0E94F10AEC01CC15DD0599F77A
:1018D000209799F463E070E0812F0E942E018431FB
:1018E000F1F08823E1F0C1E0D0E08C3111F4C0E0E8
:1018F000D0E0D195C195D10912C0EC16FD060CF4CB
:10190000E7011C161D065CF420E0AE01B501812F35
:101910000E940B0F60E470E0812F0E94A50F0E94CF
:101920005401CE01DF91CF911F91FF90EF90DF9096
:10193000CF90BF90AF900895CF93C82F80E590E0EF
:101940000E94550160E170E08C2F0E94A50F4FEFBF
:1019500062E070E08C2F0E942401CF910C9454011E
:10196000FF920F931F93CF93DF9300D0CDB7DEB7D5
:10197000F82E8A012A8369830E949C0C80E590E0FE
:101980000E9455012A816981462F422B60E070E058
:101990008F2D0E9424010115110551F40091F101D0
:1019A0001091F2010F5F1F4F1093F2010093F101AC
:1019B000412F64E070E08F2D0E942401402F65E0EC
:1019C00070E08F2D0E94240161E070E08F2D0E9455
:1019D000A50F0E94540181E00F900F90DF91CF91ED
:1019E0001F910F91FF900895BF92CF92DF92EF92D7
:1019F000FF920F931F93CF93DF9300D000D000D0BE
:101A0000CDB7DEB7FC01208D243009F05DC06A013E
:101A10007B018C01B12C63E070E08B2D0E942E01C4
:101A2000811103C0F801B08E06C08831D9F3B39498
:101A3000F4E0BF12F0CFF801808D843009F444C087
:101A400096E0EDE0F1E0DE01119601900D929A959D
:101A5000E1F7F70193819F779C8394819D83958122
:101A60009E83B7016E5F7F4F90E0982F882744E0F8
:101A700050E0845F9B4F0E94F80BF801F08C4D2DD5
:101A800060E170E08F2D0E9424014C2D61E170E037
:101A90008F2D0E942401F801808D90E0982F8827D7
:101AA00046E050E0BE016F5F7F4F8A5F9B4F0E9410
:101AB000F80BF801128E118E20E8A60162E0808DED
:101AC0000E94B00C81E001C080E026960FB6F89429
:101AD000DEBF0FBECDBFDF91CF911F910F91FF9061
:101AE000EF90DF90CF90BF9008951F93CF93DF9337
:101AF000CDB7DEB7C254D1090FB6F894DEBF0FBE22
:101B0000CDBFFC0182819381A481B58123968CAFE6
:101B10009DAFAEAFBFAF239711E023961FAF2397C2
:101B200023964CAD5DAD6EAD7FAD23974BAB5CABFB
:101B30006DAB7EAB89AF9AAFABAFBCAF8DA79EA7A5
:101B4000AFA7B8AB18AB4DA55EA56FA578A94FA3FD
:101B500058A769A77AA71EAB4BA95CA96DA97EA956
:101B600049A35AA36BA37CA38B8F9C8FAD8FBE8F91
:101B70002BE831E03C8B2B8B4FEF4D8B4E8B4F8BFB
:101B8000188E3E872D871AA74FA158A569A57AA55B
:101B90004F87588B698B7A8B1CA349A15AA16BA1E3
:101BA0007CA149875A876B877C873A8329838B83FB
:101BB0009C83AD83BE836CE271E080E090E00E9484
:101BC0003C0A0E94E905229A80E590E00E945501B6
:101BD00060E880E090E00E94270C65E58BE190E0F2
:101BE0000E94270C65E58AE190E00E94270C0E9484
:101BF0005401ECEFF1E080E090E49183808380E099
:101C000090E69187808780E098E49383828380E0E8
:101C100098E69387828780E090E59583848380E0CF
:101C200090E79587848780E098E59783868380E0B6
:101C300098E79787868780E590E00E94550146E007
:101C400050E060E071E089E090E00E94F80B44E031
:101C500050E0BE016D5F7F4F8FE090E00E94F80B77
:101C600044E050E0BE01615F7F4F81E090E00E9460
:101C7000F80B44E050E0BE016B5E7F4F85E090E0E2
:101C80000E94F80B0E9454011C8789859A85AB85B8
:101C9000BC858093AB029093AC02A093AD02B0934D
:101CA000AE02CE5BDF4F0FB6F894DEBF0FBECDBFE6
:101CB000DF91CF911F910895CF93DF93482F50E08C
:101CC00060E070E02AE08CE092E00E94BA08EC014B
:101CD00063E971E08CE092E00E94A5088C0F9D1FE3
:101CE000DF91CF9108954F925F926F927F928F9282
:101CF0009F92AF92BF92CF92DF92EF92FF920F939B
:101D00001F93CF93DF93CDB7DEB72C970FB6F89420
:101D1000DEBF0FBECDBF4F835887162F69877A87E6
:101D20008B879C8759018DB69EB64091590450917E
:101D30005A048BE891E09A838983809155049091AD
:101D40005604A0915704B09158048B839C83AD83B3
:101D5000BE83BE016F5F7F4F85E494E00E949902CD
:101D6000612E712C630184E0C80ED11CEDB7FEB763
:101D7000EC19FD090FB6F894FEBF0FBEEDBF8DB78D
:101D80009EB701967C0188858C5F90E1899F100D3C
:101D9000112411838A85F70181838B8582838C8549
:101DA00083830DB71EB70B5F1F4F2501C2018A1930
:101DB0009B09861597054CF4F20181912F01F801DA
:101DC00081938F010E945C0EF1CFA601B70185E4DB
:101DD00094E00E94CC0185E494E00E9467020FB673
:101DE000F8949EBE0FBE8DBE2C960FB6F894DEBF43
:101DF0000FBECDBFDF91CF911F910F91FF90EF905C
:101E0000DF90CF90BF90AF909F908F907F906F901A
:101E10005F904F9008958F929F92AF92BF92CF9212
:101E2000DF92EF92FF920F931F93CF93DF93B82E21
:101E30004B018A01A22E68E270E00E942E01C82F99
:101E4000D0E069E270E08B2D0E942E01DC2FCC27C0
:101E5000C82B9E013770CB2CD12CC601880F991F3F
:101E6000AC014C5F5D4F6A01FA0180819181820F64
:101E7000931FA801420F531F4130584098F060E073
:101E800078E07B01E21AF30AA701B4010E94C80BB3
:101E9000A8014E195F09B4016E0D7F1DF601808106
:101EA000918102C0A801B4010E94C80BA1100EC00C
:101EB000C00FD11F4D2F68E270E08B2D0E942401CE
:101EC0004C2F69E270E08B2D0E942401DF91CF91AD
:101ED0001F910F91FF90EF90DF90CF90BF90AF9048
:101EE0009F908F900895CF93DF93BC018CE092E098
:101EF0000E94A508EC0163E971E08CE092E00E9489
:101F0000A5088C0F9D1FDF91CF91089590E0FC01F3
:101F1000EA54FF4F2491FC01EE55FF4F8491882332
:101F200099F090E0880F991FFC01E856FF4FA591AA
:101F3000B491FC01E257FF4F859194918FB7F894CB
:101F4000EC91E22BEC938FBF0895CF93C82F462FCF
:101F500061E070E00E94240161E070E08C2F0E943B
:101F60002E018111F9CFCF910895CF93DF93CDB793
:101F7000DEB760970FB6F894DEBF0FBECDBF789482
:101F800084B5826084BD84B5816084BD85B582607E
:101F900085BD85B5816085BD80916E00816080932F
:101FA0006E00109281008091810082608093810098
:101FB00080918100816080938100809180008160A8
:101FC000809380008091B10084608093B100809103
:101FD000B00081608093B00080917A00846080932B
:101FE0007A0080917A00826080937A0080917A00F2
:101FF000816080937A0080917A00806880937A0073
:102000001092C100E0911C02F0911D0282E08083D9
:10201000E0911802F09119021082E0911A02F091F9
:102020001B0280E1808310922402E0912002F09153
:10203000210286E08083E0911E02F0911F028081E0
:1020400080618083E0911E02F0911F028081886090
:102050008083E0911E02F0911F028081806880835E
:10206000E0911E02F0911F0280818F7D80830BE83A
:1020700011E01A8309838091B9029091BA02A0916C
:10208000BB02B091BC028B839C83AD83BE83CE0127
:1020900001960E94750D1A8309831B821C821D8282
:1020A0001E8280E590E00E94550144E050E0BE01B0
:1020B0006D5F7F4F8FE090E00E94C80B0E9454013B
:1020C0006CE072E0CE0101960E94030963E971E0C1
:1020D0008CE092E00E94A5086CED74E085E494E049
:1020E0000E94DB020E94E90580912F049091300448
:1020F00089130E94860F8091300490912F049813C9
:102100000E94860F0E94E90580912F04909130046F
:10211000891719F060E00E94A50961E08FE294E060
:102120000E94CC0A65E070E080E090E00E943C0AEA
:102130004CE060E08FE294E00E943C0B4FE564E0ED
:102140008FE294E00E943C0B66E08FE294E00E94F4
:10215000960B877D182F10628BE990E0A0E0B0E02D
:1021600080933D0490933E04A0933F04B0934004B9
:10217000412F66E08FE294E00E943C0B66E08FE224
:1021800094E00E94960B811709F4CDC066E08FE2BF
:1021900094E00E94960B66E08FE294E00E94960B1A
:1021A00045E550E060E070E040933D0450933E040C
:1021B00060933F0470934004482F477D66E08FE2B0
:1021C00094E00E943C0B66E08FE294E00E94960B44
:1021D00060E08FE294E00E94CC0A80E50E94210B2F
:1021E00083E70E94210B61E08FE294E00E94CC0A19
:1021F00040E06DE18FE294E00E943C0B40E06CE136
:102200008FE294E00E943C0B40E767E08FE294E0AD
:102210000E943C0B4CE465E08FE294E00E943C0B92
:1022200060E08FE294E00E94CC0A82EE0E94210BD3
:1022300061E08FE294E00E94CC0A8FE294E00E9479
:10224000280B8FE294E00E94AF0B60E08FE294E0F5
:102250000E94960B482F4E7F60E08FE294E00E9430
:102260003C0B1092F0021092EF028091EC029091E0
:10227000ED02FC0120812F3F09F446C021812F3F50
:1022800009F055C041C020932C0486E0E82E9CEC58
:10229000F92EAA24A394B12CEA940091EC02109197
:1022A000ED02FFEFEF12CEC0C8010E94AF0B60E05D
:1022B000C8010E94960B482F416060E0C8010E944F
:1022C0003C0B40E767E0C8010E943C0BF8018081AD
:1022D0009181891719F061E00E94A509F8018781B1
:1022E000882309F404C12485A801495F5F4F6AE08F
:1022F000C8010E94600B6DE1C8010E94960B81FF2E
:1023000003C0C8010E94280B88ED91E00E94730F62
:1023100085E494E00E945801892B11F00E941C066C
:102320000E949908F5CF81E0809333042FCF4EE1CE
:1023300065E00E943C0B0091EC021091ED0261E01F
:10234000C8010E94960B482F4E7F61E0C8010E9491
:102350003C0B0091EC021091ED026DE1C8010E946E
:10236000960B482F44606DE1C8010E943C0B6CE164
:10237000C8010E94960B482F4F636CE1C8010E9470
:102380003C0B81E0F80186838091EF029091F0028E
:1023900066E070E00E947F13482F440F4B5FF0E12E
:1023A0004F9FA0011124456064E08091EC02909160
:1023B000ED020E943C0B89E190E0A0E0B0E0809348
:1023C000BE029093BF02A093C002B093C1028BE4FF
:1023D00090E09093C3028093C2022091EF0230916B
:1023E000F00240E08FEF9FEFBC0162237323672B65
:1023F00039F073E0880F991F7A95E1F74F5FF4CFBA
:102400004093EE028095909590932E0480932D0436
:1024100063E0969587956A95E1F7AC0142235323D3
:1024200050932B0440932A04009709F42CCF43E0E7
:10243000369527954A95E1F753E0969587955A95F5
:10244000E1F7F2CFFA86FB86FC86FD861E861F86A4
:10245000188ACE2CD12CF601EA5FFE4F8081898745
:102460008983FA82FB82FC82FD821E821F8218868B
:10247000C6018E579F4F4C01E1100BC0F8014485F7
:1024800050E0BE016F5F7F4FC80107960E949E1308
:1024900003C0F1E0EF1205C0F4016491F801248556
:1024A00003C0FC01649121E0AE014F5F5F4FC801A2
:1024B0000E94600BF601E458FF4F6491F8014581DA
:1024C000C8010E943C0B62E0C8010E94960BF60115
:1024D000E857FF4FE491950101C0220FEA95EAF712
:1024E000482F422B62E0C8010E943C0BD5CE62E02F
:1024F000C8010E94960BE8E8F0E0E49121E030E0AA
:1025000001C0220FEA95EAF72095422F482362E0A6
:10251000C8010E943C0BEFCEE0E6F4E08BE891E0CE
:10252000918380831282138214821582ECE0F2E0A0
:102530001382128248EE53E060E070E044835583DA
:102540006683778327E131E03183208325EC30E017
:102550003587248724EC30E03787268720EC30E06D
:10256000318B208B21EC30E0338B228B22EC30E05E
:10257000358B248B26EC30E0378B268B118E128E18
:10258000138E148EE6E6F4E0918380831282138228
:1025900014821582ECE6F4E0918380831282138228
:1025A00014821582E2E7F4E0918380831282138221
:1025B00014821582E8E7F4E091838083128213820B
:1025C00014821582E9EAF2E09183808312821382F9
:1025D00014821582E1EBF2E09183808312821382F0
:1025E00014821582EEE7F4E09183808312821382D5
:1025F00014821582E4E8F4E09183808312821382CE
:1026000014821582E5E4F4E0138212824483558338
:102610006683778325E631E0318320839787868739
:10262000108A118A128A138A24E0208FEFE2F4E0E4
:1026300027E0208328E02183148220E2258316826C
:1026400025E0248745E050E060E070E0428B538B4A
:10265000648B758B1782ADEBB2E0D096FC93EE9352
:102660009F9722EF32E030938D0320938C032AE969
:1026700033E030939903209398032EE833E0989643
:102680003C932E9397979B961D921D921D921C92A0
:102690009E979A961C929A9799961C9299971C923B
:1026A000E7EBF2E09183808380EC828388EA838386
:1026B00082E084838CE885830895A1E21A2EAA1B08
:1026C000BB1BFD010DC0AA1FBB1FEE1FFF1FA217E2
:1026D000B307E407F50720F0A21BB30BE40BF50BDF
:1026E000661F771F881F991F1A9469F76095709568
:1026F000809590959B01AC01BD01CF010895AA1B67
:10270000BB1B51E107C0AA1FBB1FA617B70710F0DC
:10271000A61BB70B881F991F5A95A9F7809590950E
:10272000BC01CD010895EE0FFF1F0590F491E02D3F
:10273000099481E090E0F8940C94A713FB01DC016C
:1027400002C001900D9241505040D8F70895F8947E
:02275000FFCFB9
:1027520000AABBCCDEFAC33C33CE3EE3EC01005E02
:10276200000000000000003008AC07F907D707EBB3
:1027720007770800000000A308A308A308A308A382
:1027820008A308A308C500A308A308A308A308A3D5
:1027920008A308A308A308A30800000000A308AC2C
:1027A20007A308A308A308A30800000000A308AC1D
:1027B20007000000009000CC01A600E600170A16F0
:1027C2000ADB02F40C0F0199020E0367025801C7DB
:1027D20000BE00AE00AA00000000000309000000D5
:1027E20000A3080D0A006D657373616765005AB333
:1027F2007920666F726D6174206E6167B3F3776BD7
:10280200610044B375676F9C6F70636A6920004E04
:1028120072206F70636A69200070696E67004745B5
:10282200540050727A65640053657475702066694D
:082832006E6973686564000023
:00000001FF
