:100000000C9466000C948E000C948E000C948E0060
:100010000C948E000C948E000C948E000C948E0028
:100020000C948E000C948E000C948E000C948E0018
:100030000C948E000C948E000C948E000C948E0008
:100040000C94120A0C948E000C944E090C942809FE
:100050000C948E000C948E000C948E000C948E00E8
:100060000C948E000C948E001112131415160A0BAA
:100070000C0D0E0F00010203040500000008000231
:100080000100000304070000000000000000000061
:100090000000250028002B0000000000240027009D
:1000A0002A000404040404040404020202020202FA
:1000B000030303030303010204081020408001022C
:1000C000040810200102040810206C1311241FBE24
:1000D000CFEFD8E0DEBFCDBF12E0A0E0B1E0EEE6AA
:1000E000FDE202C005900D92AC36B107D9F726E0CB
:1000F000ACE6B2E001C01D92A131B207E1F710E019
:10010000C6E6D0E004C02197FE010E945114C53616
:10011000D107C9F70E94580E0C94B5160C94000034
:100120000895CF93DF931F92CDB7DEB76983DC01CB
:10013000ED91FC910280F381E02D41E050E0BE01A1
:100140006F5F7F4F09950F90DF91CF910895FC016C
:10015000818D928D0895FC0184899589089523E904
:1001600031E0FC0131832083FB01408951896289A0
:100170007389FC0142835383648375830895DC0192
:10018000ED91FC91008CF18DE02D0994CF93DF93DC
:10019000FC01218D328D2115310519F48FEF9FEF70
:1001A00011C0EC014217530708F0A901888D0E9485
:1001B000D90B1816190694F7298D3A8D281B390B7F
:1001C0003A8F298FDF91CF9108950F931F93CF938B
:1001D000DF931F92CDB7DEB7FC01218D328D232B2B
:1001E00061F08C0141E050E0BE016F5F7F4F808D78
:1001F0000E94D90B181619061CF08FEF9FEF08C04C
:10020000F801818D928D0197928F818F898190E085
:100210000F90DF91CF911F910F910895CF93DF93AE
:10022000EC01888D843061F00E942C0CE88DF0E0A8
:10023000EE0FFF1FE359FD4F1182108284E0888F7B
:10024000DF91CF9108959B0190E00496982F882725
:10025000642F820F931F0C94B70B0F931F93CF93B0
:10026000DF931F92CDB7DEB790E00496982F8827D2
:100270008C01060F171F0E947F0A8FE00E94B10AAF
:10028000812F0E94B10A802F0E94B10A80E00E9453
:10029000B10A89830E947D0A89810F90DF91CF91F5
:1002A0001F910F910895BF92CF92DF92EF92FF922C
:1002B0000F931F93CF93DF9300D000D000D0CDB722
:1002C000DEB7FC01208D243009F05DC06A017B019E
:1002D0008C01B12C63E070E08B2D0E942D01811107
:1002E00003C0F801B08E06C08831D9F3B394F4E0AE
:1002F000BF12F0CFF801808D843009F444C096E03D
:10030000E0E1F1E0DE01119601900D929A95E1F79E
:10031000F70193819F779C8394819D8395819E8330
:10032000B7016E5F7F4F90E0982F882744E050E040
:10033000845F9B4F0E94880BF801F08C4D2D60E18B
:1003400070E08F2D0E9423014C2D61E170E08F2D14
:100350000E942301F801808D90E0982F882746E0C5
:1003600050E0BE016F5F7F4F8A5F9B4F0E94880BFA
:10037000F801128E118E20E8A60162E0808D0E94A5
:10038000400C81E001C080E026960FB6F894DEBFF5
:100390000FBECDBFDF91CF911F910F91FF90EF90D6
:1003A000DF90CF90BF90089508958CBD9DBD0895B6
:1003B0001F93CF93DF931F92CDB7DEB7FC01218D42
:1003C000328D232B89F0108D80E590E00E94D501BD
:1003D00021E041E050E0BE016F5F7F4F812F0E941E
:1003E000F00D898190E002C08FEF9FEF0F90DF91B9
:1003F000CF911F910895BF92CF92DF92EF92FF921B
:100400000F931F93CF93DF93CDB7DEB728970FB627
:10041000F894DEBF0FBECDBF8C01F801818D928DA7
:10042000892B49F0D801ED91FC910680F781E02DF0
:10043000C8010995F2CFB08C80E590E00E94D5010B
:10044000E12CF12C8B2D0E94810A6C01892B21F06B
:100450008B2D0E94810A7C01EC14FD0499F71E1477
:100460001F045CF548E050E0BE016F5F7F4FD8018C
:1004700058968C910E94D90B9C0118161906DCF431
:1004800089819A81AB81BC81F801808B918BA28B91
:10049000B38B8D8190E0982F88272E81820F911D3C
:1004A000958B848B2F8130E0322F22278885280F6F
:1004B000311D328F218FC90102C080E090E0289663
:1004C0000FB6F894DEBF0FBECDBFDF91CF911F9165
:1004D0000F91FF90EF90DF90CF90BF9008957F92A3
:1004E0008F929F92AF92BF92CF92DF92EF92FF9244
:1004F0000F931F93CF93DF935C014B016A01FC01C3
:1005000006891789708C80E590E00E94D501C0E0D3
:10051000D0E0872D0E94990A7C01892B21F0872D3C
:100520000E94990AEC01CE15DF0599F7CC15DD057F
:1005300078F4C0E0D0E0872D0E94990A6C01892BE5
:1005400021F0872D0E94990AEC01CC15DD0599F761
:1005500064E270E0872D0E942D01E82EF12C65E207
:1005600070E0872D0E942D01FE2CEE24E82AE70181
:10057000C00FD11F9E013770E72CF12CC701880FE7
:10058000991FAC0141585C4F7A01FA018081918139
:10059000820F931FA9014C0D5D1D4130584090F012
:1005A00000E018E0021B130BA801B4010E94880BA5
:1005B000A601401B510BB401600F711FF701808130
:1005C000918102C0A601B4010E94880BCC0DDD1DF3
:1005D0004D2F64E270E0872D0E9423014C2F65E2CD
:1005E00070E0872D0E942301F501868997898C0D83
:1005F0009D1D978B868BC601DF91CF911F910F9127
:10060000FF90EF90DF90CF90BF90AF909F908F9032
:100610007F900895CF93FC01C08D80E590E00E940B
:10062000D50160E270E08C2F0E94F90C62E070E06E
:100630008C2F0E942D0184FD15C062E070E08C2F8C
:100640000E942D0183FF09C048E162E070E08C2F19
:100650000E94230180E090E00DC080E590E00E94C0
:10066000D501E4CF40E162E070E08C2F0E942301CD
:1006700081E090E0CF910895EF92FF921F93CF9386
:10068000DF93EB017A01FC01178A168A108D8A81AB
:10069000811109C08B81811106C08C81811103C039
:1006A0008D81882319F1E114F10401F180E590E0D6
:1006B0000E94D501BE016E5F7F4F812F90E0982F81
:1006C000882744E050E0845F9B4F0E94880B4F2DA9
:1006D00060E170E0812F0E9423014E2D61E170E006
:1006E000812F0E94230181E090E002C080E090E031
:1006F000DF91CF911F91FF90EF900895EF92FF92BD
:100700001F93CF93DF93FC01208D243011F080E004
:1007100022C07B01EC0110E080E590E00E94D50151
:1007200063E070E0812F0E942D01811102C0188FBB
:1007300005C08831E1F31F5F143071F7888D843074
:1007400031F3FD86EC861A8E198E20E0A70162E057
:100750000E94400C81E0DF91CF911F91FF90EF90BC
:1007600008954F925F926F927F928F929F92AF9275
:10077000BF92CF92DF92EF92FF920F931F93CF938E
:10078000DF93CDB7DEB7EE970FB6F894DEBF0FBE9E
:10079000CDBF5C018B014A0183E991E09A83898393
:1007A0001C861B8648EE53E060E070E04D875E8754
:1007B0006F87788B2DE631E03A872987988F8F8B6A
:1007C000198E1A8E1B8E1C8E24E029A399AB88AB40
:1007D0001AAA1BAA1CAA1DAA80912E0490912F046C
:1007E000A0913004B09131048EA39FA3A8A7B9A70C
:1007F0008B839C83AD83BE8318861F82F80120E023
:1008000080E090E06AE03191332319F140ED430F2D
:100810004A3080F4689FA001699F500D1124CA01DD
:10082000C097830F911D37FD9A958F3F910559F31E
:1008300050F32BC03E3249F5233039F1A2E3B0E04A
:10084000AC0FBD1FA20FB11D8C932F5F80E090E015
:10085000DACF2330D1F48DABD501ED91FC91008836
:10086000F189E02D83E991E09DA38CA38AA99BA93E
:10087000ACA9BDA98EA39FA3A8A7B9A7A401BE0137
:100880006C5D7F4FC501099530C24B815C816D81E4
:100890007E818091360490913704A0913804B09104
:1008A0003904481759076A077B0709F41CC20E94DC
:1008B000060A6F7077277C5FCE0109960E947E033F
:1008C000813009F00DC283E991E09DA38CA38B8157
:1008D0009C81AD81BE818EA39FA3A8A7B9A745E344
:1008E00050E0BE016C5D7F4FCE0109960E943C0333
:1008F000892B19F400E010E07EC10E94060A788777
:100900006F837627672776277DA36CA342E050E0AC
:10091000BE016C5D7F4FCE0109960E946F0281E09F
:1009200090E09FAB8EAB42E050E0BE016A5C7F4F2F
:10093000CE0109960E946F0280E091E09FAB8EABE2
:1009400042E050E0BE016A5C7F4FCE0109960E94F2
:100950006F021FAA1EAA42E050E0BE016A5C7F4FF0
:10096000CE0109960E946F0242E050E0BE016A5C2F
:100970007F4FCE0109960E946F0242E050E0BE0117
:100980006A5C7F4FCE0109960E946F027801D70101
:100990008C91882319F1F8017F018191811117C091
:1009A0006701C01AD10A1C141D04A4F4C8AE41E0AA
:1009B00050E0BE01685C7F4FCE0109960E946F0235
:1009C000A601B801CE0109960E946F0203C08E32C3
:1009D00019F7E6CF87010F5F1F4FD9CF18AE41E05F
:1009E00050E0BE01685C7F4FCE0109960E946F0205
:1009F00000E011E01FAB0EAB42E050E0BE016A5CCC
:100A00007F4FCE0109960E946F021FAB0EAB42E0F2
:100A100050E0BE016A5C7F4FCE0109960E946F02D2
:100A2000CE0109960E940A03892B09F463CF63E083
:100A3000E62EF12C0E94060A2B013C01CE010996FC
:100A40000E94FB0118161906A4F00E94060ADC0198
:100A5000CB0184199509A609B70989389341A105E5
:100A6000B105C8F462E370E080E090E00E94CC0938
:100A7000E5CF4B815C816D817E81898D9A8DAB8DB7
:100A8000BC8D481759076A077B0741F48D8D9E8DF1
:100A9000C59721F406C02FEF3FEFA4C02EEF3FEF24
:100AA000A1C08AA19BA10C970CF4B2C04CE050E00D
:100AB000BE016C5D7F4FCE0109960E94C6008EA1DB
:100AC00090E0982F88272FA1822B9BAF8AAF2CA173
:100AD00030E0322F22274DA1242B4F815885421719
:100AE000530709F092C097FF90C08F709270892BC6
:100AF00009F0F3C00AA510E0102F00278BA5082BE2
:100B00000115110509F4E6C0C12CD12C88A590E08F
:100B1000982F882729A5822BC816D90608F47BC0F0
:100B2000C12CD12C41E050E0BE01645C7F4FCE016E
:100B300009960E94C6008CAD982F907C09F0A5C044
:100B4000811197C08CAD8111EDCF42E050E0BE0124
:100B5000685C7F4FCE0109960E94C60042E050E0DB
:100B6000BE016A5C7F4FCE0109960E94C600CE018D
:100B700009960E94E500CE0109960E94E500CE018B
:100B800009960E94E500CE0109960E94E50042E028
:100B900050E0BE01665C7F4FCE0109960E94C60000
:100BA00088AD99AD8115914009F075C02EA93FA976
:100BB0003227232732272130310509F06CC08AAD56
:100BC0009BAD8115944009F082C044E050E0BE0125
:100BD0006E5C7F4FCE0109962DAF3EAF0E94C600DE
:100BE0002DAD3EAD8901B1E0EB1AF10821F02F3FA8
:100BF0003F4F09F41FCFCE0109960E940E0101302C
:100C0000110509F429CEC80170C02CEF3FEFEACFDF
:100C10002DEF3FEFE7CF41E050E0BE016A5C7F4F30
:100C2000CE0109960E94C6008EA9811117C08EA917
:100C30008111F1CFCE0109960E94E500CE010996FF
:100C40000E94E500CE0109960E94E500CE010996BA
:100C50000E94E500FFEFCF1ADF0A58CF8EA99FEF61
:100C6000980F9EAB882319F3CE0109960E94E500E8
:100C7000F5CF8CAD9FEF980F9CAF882309F462CF1E
:100C8000CE0109960E94E500F4CFCE0109960E949C
:100C9000E5001CAE57CF612C712C8AAD9BAD982717
:100CA000892798276816790640F4CE0109960E9494
:100CB000E5008FEF681A780AF0CFAFEFCA1ADA0AA8
:100CC000C016D10609F02ECF26EF3FEF8BCF27EFCE
:100CD0003FEF88CF2AEF3FEF85CF2BEF3FEF82CF5B
:100CE00080E090E002C08EEF9FEFEE960FB6F89492
:100CF000DEBF0FBECDBFDF91CF911F910F91FF904F
:100D0000EF90DF90CF90BF90AF909F908F907F90AB
:100D10006F905F904F900895CF93CFB7F8948091E4
:100D20006C02811124C0ECEAF0E08491E0ECF0E088
:100D30009491E82FF0E0EE0FFF1FE856FF4FA591CA
:100D4000B491EC91E92321F461E08AE00E948009EA
:100D50008AE00E94DA0C8CB580618CBD8CB5806411
:100D60008CBD8DE00E94DA0C8BE00E94DA0C809141
:100D70006C028F5F80936C02CFBFCF9108956F920A
:100D80007F928F929F92AF92BF92CF92DF92EF921B
:100D9000FF920F931F93CF93DF9300D000D000D02A
:100DA000CDB7DEB78C018DB69EB64091DC05509173
:100DB000DD0583E991E09A8389838091D80590913C
:100DC000D905A091DA05B091DB058B839C83AD83B7
:100DD000BE83BE016F5F7F4F88EC95E00E943C03AD
:100DE000D80112968C91C82ED12CB4E0CB0ED11C18
:100DF000EDB7FEB7EC19FD090FB6F894FEBF0FBEB4
:100E0000EDBF2DB73EB72F5F3F4F7901D801119647
:100E10009C919C5FB0E19B9F800D11248183F80120
:100E20008381D90111968C931197848112968C93AA
:100E30001297858113968C938BE991E00E948A0C1E
:100E40003701B4E06B0E711CA12CB12CD8011296A5
:100E50008C9190E0A816B9068CF4D8011696ED9105
:100E6000FC911797EA0DFB1D8081F30181933F01EF
:100E70000E948F0CFFEFAF1ABF0AE8CFA601B7019F
:100E800088EC95E00E946F0288EC95E00E940A03CE
:100E90000FB6F8949EBE0FBE8DBE26960FB6F89480
:100EA000DEBF0FBECDBFDF91CF911F910F91FF909D
:100EB000EF90DF90CF90BF90AF909F908F907F90FA
:100EC0006F900895CF92DF92EF92FF920F931F934E
:100ED000CF93DF936C017A018B01C0E0D0E0CE1597
:100EE000DF0589F0D8016D918D01D601ED91FC915E
:100EF0000190F081E02DC6010995892B11F47E0146
:100F000002C02196ECCFC701DF91CF911F910F91C5
:100F1000FF90EF90DF90CF900895FC01918D828D2E
:100F2000981761F0828DDF01A80FB11D5D968C913D
:100F3000928D9F5F9F73928F90E008958FEF9FEF48
:100F40000895FC01918D828D981731F0828DE80F04
:100F5000F11D858D90E008958FEF9FEF0895FC01BE
:100F6000918D228D892F90E0805C9F4F821B91098B
:100F70008F73992708958FE893E00E94AF0721E0CF
:100F8000892B09F420E0822F0895FC01848DDF0174
:100F9000A80FB11DA35ABF4F2C91848D90E00196EC
:100FA0008F739927848FA689B7892C93A089B189DB
:100FB0008C9180648C93938D848D981306C00288E5
:100FC000F389E02D80818F7D80830895EF92FF92D9
:100FD0000F931F93CF93DF93EC0181E0888F9B8D5C
:100FE0008C8D981305C0E889F989808185FD24C01E
:100FF000F62E0B8D10E00F5F1F4F0F731127E02EA1
:101000008C8DE8120CC00FB607FCFACFE889F9897D
:10101000808185FFF5CFCE010E94C507F1CF8B8D72
:10102000FE01E80FF11DE35AFF4FF0820B8FEA89B2
:10103000FB898081806207C0EE89FF896083E8892F
:10104000F98980818064808381E090E0DF91CF9195
:101050001F910F91FF90EF900895CF93DF93EC01D4
:10106000888D8823C9F0EA89FB89808185FD05C0C8
:10107000A889B9898C9186FD0FC00FB607FCF5CF02
:10108000808185FFF2CFA889B9898C9185FFEDCF4A
:10109000CE010E94C507E7CFDF91CF91089580E090
:1010A00090E0892B29F00E94BB0781110C9400006D
:1010B00008953FB7F89480917B0390917C03A091B1
:1010C0007D03B0917E0326B5A89B05C02F3F19F084
:1010D0000196A11DB11D3FBFBA2FA92F982F8827B8
:1010E000820F911DA11DB11DBC01CD0142E0660F13
:1010F000771F881F991F4A95D1F708950E944E16B1
:101100006115710579F0FB0101900020E9F7319735
:10111000AF01461B570BDC01ED91FC910280F3817E
:10112000E02D099480E090E008954F925F926F92D5
:101130007F92EF92FF920F931F93CF93DF93CDB7E0
:10114000DEB7A1970FB6F894DEBF0FBECDBF7C010E
:10115000FA01CB0119A2223008F42AE08E010F5DBA
:101160001F4F422E512C612C712CBF01A301920103
:101170000E949316F901CA01015011096A3014F452
:10118000605D01C0695CD8016C93232B242B252B57
:1011900061F7B801C7010E948008A1960FB6F894C4
:1011A000DEBF0FBECDBFDF91CF911F910F91FF909A
:1011B000EF907F906F905F904F9008958F929F92E5
:1011C000AF92BF92CF92DF92EF92FF920F931F9355
:1011D000CF93DF937C01EB016C0182E0C80ED11C40
:1011E0004701E5E08E0E911C00E010E0F601419110
:1011F0006F0150E060E070E02AE0CE010E949508A7
:101200005C01E881F9810190F081E02D6EE2CE0170
:1012100009958A0D9B1D080F191FC814D90431F7B1
:10122000F701458150E060E070E02AE0CE010E94C5
:101230009508800F911FDF91CF911F910F91FF9023
:10124000EF90DF90CF90BF90AF909F908F900895D8
:101250001F920F920FB60F9211242F933F934F932B
:101260005F936F937F938F939F93AF93BF93EF930E
:10127000FF938FE893E00E94C507FF91EF91BF9124
:10128000AF919F918F917F916F915F914F913F911E
:101290002F910F900FBE0F901F9018951F920F92D5
:1012A0000FB60F9211242F938F939F93EF93FF9379
:1012B000E0919F03F091A0038081E091A503F0915C
:1012C000A60382FD12C090818091A8038F5F8F7367
:1012D0002091A903821751F0E091A803F0E0E157B3
:1012E000FC4F958F8093A80301C08081FF91EF91FF
:1012F0009F918F912F910F900FBE0F901F90189577
:1013000090E0FC01E658FF4F3491FC01EA54FF4F96
:101310002491FC01EE55FF4FE491EE2309F43BC00C
:10132000332339F1333091F038F43130A9F03230D1
:1013300001F584B58F7D12C0373091F03830A1F0BF
:101340003430B9F4809180008F7D03C0809180009B
:101350008F77809380000DC084B58F7784BD09C0DE
:101360008091B0008F7703C08091B0008F7D809313
:10137000B000F0E0EE0FFF1FE257FF4FA591B491D0
:101380008FB7F894EC91611103C020952E2301C012
:101390002E2B2C938FBF08958F929F92AF92BF9266
:1013A000CF92DF92EF92FF926B017C010E9459086D
:1013B0004B015C01C114D104E104F104F1F00E947D
:1013C0005908DC01CB0188199909AA09BB09883E93
:1013D0009340A105B10570F321E0C21AD108E108DC
:1013E000F10888EE880E83E0981EA11CB11CC11480
:1013F000D104E104F10419F7DDCFFF90EF90DF9005
:10140000CF90BF90AF909F908F9008952FB7F89492
:1014100060917703709178038091790390917A03BA
:101420002FBF08951F920F920FB60F9211242F9382
:101430003F938F939F93AF93BF9380917703909146
:101440007803A0917903B0917A033091760323E079
:10145000230F2D3720F40196A11DB11D05C026E8EC
:10146000230F0296A11DB11D20937603809377036D
:1014700090937803A0937903B0937A0380917B03D0
:1014800090917C03A0917D03B0917E030196A11DF4
:10149000B11D80937B0390937C03A0937D03B09355
:1014A0007E03BF91AF919F918F913F912F910F90AC
:1014B0000FBE0F901F901895CF93DF93EC019CB552
:1014C0009F7D9CBD9CB5937F9CBD9CB59C7F9CBD26
:1014D0009DB591609DBD89810E9480098A899B8903
:1014E0008230910538F0880F991F880F991F059752
:1014F0000197F1F7DF91CF9108952A9A08952A98DC
:1015000008951F93CF93DF93182F66E270E00E9437
:101510002D01C82FD0E067E270E0812F0E942D01DD
:10152000DC2FCC279E01282BC901DF91CF911F9181
:1015300008951F93CF93DF93182F60E270E00E940D
:101540002D01C82FD0E061E270E0812F0E942D01B3
:10155000DC2FCC279E01282BC901DF91CF911F9151
:1015600008958EBD00000DB407FEFDCF8EB5089521
:101570001F93CF93DF93EC0160E00E945C0A81EE41
:101580000E94B10A182F61E0CE010E945C0A812FEF
:10159000DF91CF911F910895FF920F931F93CF93E7
:1015A000DF931F92CDB7DEB78C01F62E60E0498342
:1015B0000E945C0A8F2D8F7180620E94B10AF82E02
:1015C0004981842F0E94B10A61E0C8010E945C0A2F
:1015D0008F2D0F90DF91CF911F910F91FF90089564
:1015E000CF92DF92EF92FF920F931F93CF93DF93EF
:1015F00000D0CDB7DEB77C01062F142F60E0298321
:101600005A830E945C0A802F8F7180620E94B10A07
:10161000082FC12E5A81D52E2981120F1C1531F0A9
:10162000F60181916F010E94B10AF8CF61E0C70114
:101630000E945C0A802F0F900F90DF91CF911F9135
:101640000F91FF90EF90DF90CF9008951F93CF936D
:10165000DF93EC01162F60E00E945C0A812F8F71EE
:101660000E94B10A8FEF0E94B10A182F61E0CE01EB
:101670000E945C0A812FDF91CF911F910895CF9333
:10168000DF93EC0160E00E94260B81FD0EC0482F25
:10169000426060E0CE010E94CC0A65E070E080E02C
:1016A00090E0DF91CF910C94CC09DF91CF91089518
:1016B000CF92DF92EF92FF920F931F93CF93DF931E
:1016C000EC017A018B016C01C40ED51ECC15DD0531
:1016D000A9F00E947F0A8FE00E94B10A8D2F0E941C
:1016E000B10A8C2F0E94B10A219680E00E94B10AB3
:1016F000F80181938F010E947D0AE8CFC701DF9135
:10170000CF911F910F91FF90EF90DF90CF900895B0
:10171000CF92DF92EF92FF920F931F93CF93DF93BD
:10172000EC017A018B016C01C40ED51ECC15DD05D0
:10173000A1F00E947F0A80EF0E94B10A8D2F0E94C3
:10174000B10A8C2F0E94B10A2196F80181918F0174
:101750000E94B10A0E947D0AE9CFC701DF91CF91B3
:101760001F910F91FF90EF90DF90CF9008951F93FE
:10177000CF93DF9300D0CDB7DEB7182F6A8399835C
:101780000E947F0A80EF0E94B10A9981892F0E94EE
:10179000B10A812F0E94B10A6A81862F0E94B10A84
:1017A0000E947D0A81E00F900F90DF91CF911F91F1
:1017B0000895AF92BF92CF92DF92EF92FF921F9364
:1017C000CF93DF93182F5B017A0180E590E00E94B0
:1017D000D501C0E0D0E0812F0E94810A6C01892BE5
:1017E00021F0812F0E94810AEC01CC15DD0599F7CB
:1017F000209799F463E070E0812F0E942D018431DD
:10180000F1F08823E1F0C1E0D0E08C3111F4C0E0C8
:10181000D0E0D195C195D10912C0EC16FD060CF4AB
:10182000E7011C161D065CF420E0AE01B501812F16
:101830000E94F00D60E470E0812F0E94F90C0E947C
:10184000D401CE01DF91CF911F91FF90EF90DF90F7
:10185000CF90BF90AF900895CF93C82F80E590E0D0
:101860000E94D50160E170E08C2F0E94F90C4FEFCF
:1018700062E070E08C2F0E942301CF910C94D40180
:10188000FF920F931F93CF93DF9300D0CDB7DEB7B6
:10189000F82E8A012A8369830E942C0C80E590E04F
:1018A0000E94D5012A816981462F422B60E070E0B9
:1018B0008F2D0E9423010115110551F4009174032D
:1018C000109175030F5F1F4F1093750300937403FE
:1018D000412F64E070E08F2D0E942301402F65E0CE
:1018E00070E08F2D0E94230161E070E08F2D0E9437
:1018F000F90C0E94D40181E00F900F90DF91CF91FD
:101900001F910F91FF90089569E672E08FE893E0D0
:101910000C948008BC018FE893E00C948008CF936E
:10192000DF93482F50E060E070E02AE08FE893E01A
:101930000E949508EC010E94840C8C0F9D1FDF9182
:10194000CF910895CF92DF92EF92FF92CF93DF93E2
:101950006B017C01E0918F03F09190030190F08185
:10196000E02D6DE28FE893E00995EC0144275527BF
:10197000BA014C195D096E097F092AE08FE893E0EE
:101980000E9495088C0F9D1FDF91CF91FF90EF90E3
:10199000DF90CF900895CF93DF93BC018FE893E061
:1019A0000E948008EC010E94840C8C0F9D1FDF9127
:1019B000CF91089590E0FC01EA54FF4F2491FC017F
:1019C000EE55FF4F8491882399F090E0880F991F7E
:1019D000FC01E856FF4FA591B491FC01E257FF4F7F
:1019E000859194918FB7F894EC91E22BEC938FBF93
:1019F0000895CF93C82F462F61E070E00E94230125
:101A000061E070E08C2F0E942D018111F9CFCF9100
:101A100008951F93CF93DF93CDB7DEB7C254D1099A
:101A20000FB6F894DEBF0FBECDBFFC01828193815B
:101A3000A481B58123968CAF9DAFAEAFBFAF239786
:101A400011E023961FAF239723964CAD5DAD6EAD8D
:101A50007FAD23974BAB5CAB6DAB7EAB89AF9AAFE1
:101A6000ABAFBCAF8DA79EA7AFA7B8AB18AB4DA5CA
:101A70005EA56FA578A94FA358A769A77AA71EAB43
:101A80004BA95CA96DA97EA949A35AA36BA37CA30A
:101A90008B8F9C8FAD8FBE8F23E931E03C8B2B8BDE
:101AA0004FEF4D8B4E8B4F8B188E3E872D871AA78D
:101AB0004FA158A569A57AA54F87588B698B7A8B5A
:101AC0001CA349A15AA16BA17CA149875A876B87A6
:101AD0007C873A8329838B839C83AD83BE836CE2AE
:101AE00071E080E090E00E94CC090E948C06229A6E
:101AF00080E590E00E94D50160E880E090E00E94DF
:101B0000B70B65E58BE190E00E94B70B65E58AE1D4
:101B100090E00E94B70B0E94D401EFE7F3E080E071
:101B200090E49183808380E090E69187808780E0D5
:101B300098E49383828380E098E69387828780E0AD
:101B400090E59583848380E090E79587848780E0A3
:101B500098E59783868380E098E79787868780E576
:101B600090E00E94D50146E050E060E071E089E03D
:101B700090E00E94880B44E050E0BE016D5F7F4F13
:101B80008FE090E00E94880B44E050E0BE01615F6E
:101B90007F4F81E090E00E94880B44E050E0BE015E
:101BA0006B5E7F4F85E090E00E94880B0E94D4011D
:101BB0001C8789859A85AB85BC8580932E0490937C
:101BC0002F04A0933004B0933104CE5BDF4F0FB6E7
:101BD000F894DEBF0FBECDBFDF91CF911F91089566
:101BE0008F929F92AF92BF92CF92DF92EF92FF922D
:101BF0000F931F93CF93DF93B82E4B018A01A22E30
:101C000068E270E00E942D01C82FD0E069E270E028
:101C10008B2D0E942D01DC2FCC27C82B9E01377005
:101C2000CB2CD12CC601880F991FAC0149575C4FB2
:101C30006A01FA0180819181820F931FA801420FEE
:101C4000531F4130584098F060E078E07B01E21A81
:101C5000F30AA701B4010E94580BA8014E195F09AD
:101C6000B4016E0D7F1DF6018081918102C0A80133
:101C7000B4010E94580BA1100EC0C00FD11F4D2FF0
:101C800068E270E08B2D0E9423014C2F69E270E026
:101C90008B2D0E942301DF91CF911F910F91FF9017
:101CA000EF90DF90CF90BF90AF909F908F9008956E
:101CB000CF93DF93CDB7DEB7A7970FB6F894DEBF0B
:101CC0000FBECDBF789484B5826084BD84B5816039
:101CD00084BD85B5826085BD85B5816085BD8091F7
:101CE0006E00816080936E0010928100809181006F
:101CF0008260809381008091810081608093810067
:101D0000809180008160809380008091B100846028
:101D10008093B1008091B00081608093B000809189
:101D20007A00846080937A0080917A008260809348
:101D30007A0080917A00816080937A0080917A00A5
:101D4000806880937A001092C100E0919F03F09127
:101D5000A00382E08083E0919B03F0919C031082BA
:101D6000E0919D03F0919E0380E180831092A70390
:101D7000E091A303F091A40386E08083E091A103A6
:101D8000F091A203808180618083E091A103F091B2
:101D9000A203808188608083E091A103F091A20377
:101DA000808180688083E091A103F091A20380810B
:101DB0008F7D808303E911E01A83098380913C04BD
:101DC00090913D04A0913E04B0913F048B839C838D
:101DD000AD83BE83CE0101960E94090D1A8309834B
:101DE0001B821C821D821E8280E590E00E94D5012C
:101DF00044E050E0BE016D5F7F4F8FE090E00E94B5
:101E0000580B0E94D4016FE873E0CE0101960E9446
:101E1000DE080E94840C6CED74E088EC95E00E9472
:101E20007E030E948C068091B2059091B3058913C0
:101E30000E94DA0C8091B3059091B20598130E942C
:101E4000DA0C0E948C068091B2059091B305891737
:101E500019F060E00E94800961E082EB95E00E9449
:101E60005C0A65E070E080E090E00E94CC094CE004
:101E700060E082EB95E00E94CC0A4FE564E082EBE3
:101E800095E00E94CC0A66E082EB95E00E94260B6A
:101E9000877D182F10628BE990E0A0E0B0E080937E
:101EA000C0059093C105A093C205B093C305412F0F
:101EB00066E082EB95E00E94CC0A66E082EB95E05A
:101EC0000E94260B811709F40BC366E082EB95E0B4
:101ED0000E94260B66E082EB95E00E94260B45E50A
:101EE00050E060E070E04093C0055093C1056093FE
:101EF000C2057093C305482F477D66E082EB95E0ED
:101F00000E94CC0A66E082EB95E00E94260B60E01E
:101F100082EB95E00E945C0A80E50E94B10A83E7AB
:101F20000E94B10A61E082EB95E00E945C0A40E009
:101F30006DE182EB95E00E94CC0A40E06CE182EB1F
:101F400095E00E94CC0A40E767E082EB95E00E94B2
:101F5000CC0A4CE465E082EB95E00E94CC0A60E09C
:101F600082EB95E00E945C0A82EE0E94B10A61E079
:101F700082EB95E00E945C0A82EB95E00E94B80A31
:101F800082EB95E00E943F0B60E082EB95E00E94BF
:101F9000260B482F4E7F60E082EB95E00E94CC0A32
:101FA000109273041092720480916F0490917004E7
:101FB000DC012C912F3F09F44AC011962C912F3F40
:101FC00009F092C244C02093AF0556E0852E6CEC18
:101FD000962EAA24A394B12C8A9400916F04109198
:101FE0007004BFEF8B120CC3C8010E943F0B60E06E
:101FF000C8010E94260B482F416060E0C8010E9482
:10200000CC0A40E767E0C8010E94CC0AF801808151
:102010009181891719F061E00E948009D801179613
:102020008C911797882309F442C31C962C91A80120
:10203000495F5F4F6AE0C8010E94F00A6DE1C80184
:102040000E94260B81FF03C0C8010E94B80A82EAE1
:1020500091E00E94CB0C88EC95E00E94FB01892B5B
:1020600009F43BC2EDB7FEB7FAA3E9A34FEF50E086
:1020700065E772E088EC95E00E94C6009E8F8D8F28
:102080000E94840C81EB91E00E94CB0C83EC91E0E8
:102090000E948A0C2D8D3E8DA901330F660B770BA4
:1020A00077FF05C0CB01BA010E94A20C05C02AE04F
:1020B0008FE893E00E9495080E94840CD0907502EE
:1020C000C0907602309177023DA3309178023EA312
:1020D0008D2D90E046E0959587954A95E1F701971B
:1020E00061F088ED91E00E94CB0C89A19AA10FB616
:1020F000F8949EBF0FBE8DBFF0C13D2D3F703B8F4A
:10210000832F90E09A8F898FADB7BEB7A81BB90B0C
:102110000FB6F894BEBF0FBEADBFEDB7FEB7319698
:10212000F88FEF8BA9E7B2E0CF012F89388D821BA2
:10213000930B298D3A8D821793071CF48D9181930F
:10214000F3CF89010C5F1F4FA12CB12C18A21F8E59
:10215000712C412C512CC8018B589D4F4C01AD8DD9
:10216000BE8D0A171B0724F4D4018C918F3FC1F454
:10217000F42CF40180818F3F09F07CC00F5F1F4F6A
:102180003D8D301B3C8F832E912CC4010E9457142F
:102190001C01B8016B587D4FA4010E9453166AC000
:1021A000FFEF4F1A5F0A2F8D38A12C5F3F4F3CA3E2
:1021B0002BA3B901C5010E9484155C0178013FEF92
:1021C000E31AF30AD4012C91822F90E034E0959524
:1021D00087953A95E1F7682E2F708D309105ACF018
:1021E000F701EB58FD4F8E30910551F48081825FED
:1021F0007801B3E0EB0EF11CF4016280680E05C0BB
:102200006080680EC80102967C012D30A8F0F701AD
:10221000EB58FD4FC70101962E3059F42081225F03
:10222000A2E0EA0EF11CFC01EB58FD4F8081280F63
:1022300003C03081230F7C01022F10E0C8012FA3BF
:102240000E9457144C01B7016B587D4FA8010E94A2
:102250005316EF8DF8A1EA0DFB1D760C70822FA1AD
:102260002183938282820E0D1F1D2BA13CA138A3D6
:102270002F8F71CFDD0CDD0CD294D694D69483E0F1
:10228000D8220E94840C8CEE91E00E948A0C81E09E
:102290000E948F0C82EF91E00E948A0C8D2D0E948B
:1022A0008F0C89EF91E00E948A0C8B8D0E948F0C1D
:1022B0008FEF91E00E948A0C8C2D0E948F0C86E09B
:1022C00092E00E948A0C0F89188DC801EF89F88D61
:1022D0008E1B9F0B298D3A8D8217930764F4D801CA
:1022E0004D918D0150E060E070E020E18FE893E0D7
:1022F0000E949508EACF0E94840C80E192E00E943F
:102300008A0C8F2D0E948F0C85010F5F1F4F612C4F
:10231000712C4301C20199279A8F898F298D3A8D9B
:10232000621673060CF056C080E292E00E948A0C9E
:102330002AE0B401A3018FE893E00E9495088AE2A5
:1023400092E00E948A0CD8014C9150E060E070E06D
:102350002AE08FE893E00E94950884E392E00E94CF
:102360008A0CF8013197408150E060E070E02AE08B
:102370008FE893E00E9495088CE392E00E948A0C1B
:10238000E12CF12CF801808190E0E816F906C4F404
:10239000D8011196ED91FC911297EE0DFF1D408131
:1023A00050E060E070E02AE08FE893E00E9495083A
:1023B00086ED91E00E948A0CBFEFEB1AFB0AE2CF98
:1023C0000E94840C0C5F1F4FFFEF6F1A7F0A8F0A69
:1023D0009F0AA4CF85E492E00E948A0C8C8D0E9413
:1023E0008F0C86E592E00E948A0C81013C8DE32EE1
:1023F000F12CC801821993098E159F0584F4D80128
:102400004D918D0150E060E070E02AE08FE893E0AC
:102410000E94950886ED91E00E948A0CEACF0E9406
:10242000840C0E94840CD11013C0C11036C080E609
:1024300092E00E94CB0C81E08983B2E0BA83E0E4B1
:10244000EC833B8D3B833DA13D833EA13E8321C078
:1024500081E0D81222C0C81220C085E692E00E9416
:10246000CB0CC982CA8295E49C833B8D3B838F89C8
:10247000988D98878F838BE991E00E948A0CEF8179
:10248000F88580810E948F0C3DA13D838EA18F5FD6
:102490008E83CE0101960E94BF06750100E010E018
:1024A0000415150569F0D70112968D919C9113972B
:1024B0000E94EC140F5F1F4FB4E0EB0EF11CF0CF45
:1024C000C5010E94EC14C1010E94EC14E9A1FAA11B
:1024D0000FB6F894FEBF0FBEEDBF0E944F08BBCDF4
:1024E00081E08093B605F1CC4EE165E00E94CC0A14
:1024F00000916F041091700461E0C8010E94260BE6
:10250000482F4E7F61E0C8010E94CC0A00916F0401
:10251000109170046DE1C8010E94260B482F4460A1
:102520006DE1C8010E94CC0A6CE1C8010E94260B33
:10253000482F4F636CE1C8010E94CC0A81E0D801AA
:1025400016968C93809172049091730466E070E00B
:102550000E943D14482F440F4B5FB0E14B9FA001F8
:102560001124456064E080916F04909170040E9492
:10257000CC0A89E190E0A0E0B0E080934104909320
:102580004204A0934304B09344048BE490E09093FE
:10259000460480934504209172043091730440E016
:1025A0008FEF9FEFBC0162237323672B39F0B3E0F9
:1025B000880F991FBA95E1F74F5FF4CF40937104EC
:1025C000809590959093B1058093B005A3E0969582
:1025D0008795AA95E1F7AC01422353235093AE05AA
:1025E0004093AD05009709F4EECCE3E036952795CE
:1025F000EA95E1F7F3E096958795FA95E1F7F2CF42
:102600009A829B829C829D821E821F821886E82C61
:10261000F12CF701EA5EFE4F808189838F87988ACB
:10262000998A9A8A9B8A1C8A1D8A1E8AF701E25916
:10263000FF4F6F0181100CC0D8011C964C9150E0E7
:10264000BE01615F7F4FC80107960E94531603C009
:10265000B1E08B1206C0F6016491D8011C962C9152
:1026600002C0649121E0AE01415F5F4FC8010E944A
:10267000F00AF701E859FF4F6491D80115964C9183
:10268000C8010E94CC0A62E0C8010E94260BF70133
:10269000EC58FF4FE491950101C0220FEA95EAF74B
:1026A000482F422B62E0C8010E94CC0A95CC62E020
:1026B000C8010E94260BE4E7F0E0E49121E030E05D
:1026C00001C0220FEA95EAF72095422F482362E0E5
:1026D000C8010E94CC0AB2CCE3EEF5E083E991E0B8
:1026E000918380831282138214821582EFE8F3E0D3
:1026F0001382128248EE53E060E070E04483558319
:102700006683778321E231E03183208325EC30E05A
:102710003587248724EC30E03787268720EC30E0AB
:10272000318B208B21EC30E0338B228B22EC30E09C
:10273000358B248B26EC30E0378B268B118E128E56
:10274000138E148EE9EEF5E091838083128213825A
:1027500014821582EFEEF5E091838083128213825A
:1027600014821582E5EFF5E0918380831282138253
:1027700014821582EBEFF5E091838083128213823D
:1027800014821582ECE2F4E091838083128213823A
:1027900014821582E4E3F4E0918380831282138231
:1027A00014821582E1E0F6E0918380831282138225
:1027B00014821582E7E0F6E091838083128213820F
:1027C00014821582E8ECF5E013821282448355836B
:1027D000668377832DE631E0318320839787868770
:1027E000108A118A128A138A24E0208FE2EBF5E026
:1027F00027E0208328E02183148220E225831682AB
:1028000025E0248745E050E060E070E0428B538B88
:10281000648B758B1782A0E4B4E0D096FC93EE93A2
:102820009F9725E734E03093100520930F052DE1A5
:1028300035E030931C0520931B0521E135E0989687
:102840003C932E9397979B961D921D921D921C92DE
:102850009E979A961C929A9799961C9299971C9279
:10286000EAE3F4E09183808380EC828388EA8383C7
:1028700082E084838CE885830895AA1BBB1B51E109
:1028800007C0AA1FBB1FA617B70710F0A61BB70BE0
:10289000881F991F5A95A9F780959095BC01CD0185
:1028A0000895EE0FFF1F0590F491E02D0994CF934A
:1028B000DF938230910510F482E090E0E0910F0602
:1028C000F091100620E030E0C0E0D0E0309711F148
:1028D0004081518148175907C0F04817590761F4E2
:1028E00082819381209719F09B838A832BC09093D8
:1028F000100680930F0626C02115310519F04217E6
:10290000530718F49A01BE01DF01EF010280F38141
:10291000E02DDCCF2115310509F1281B390B2430BE
:10292000310590F412968D919C9113976115710564
:1029300021F0FB019383828304C09093100680935F
:102940000F06FD01329644C0FD01E20FF31F819393
:102950009193225031092D933C933AC020910D065A
:1029600030910E06232B41F420910801309109018A
:1029700030930E0620930D06209106013091070139
:102980002115310541F42DB73EB740910A01509110
:102990000B01241B350BE0910D06F0910E06E2179A
:1029A000F307A0F42E1B3F0B2817390778F0AC0172
:1029B0004E5F5F4F2417350748F04E0F5F1F50934F
:1029C0000E0640930D068193919302C0E0E0F0E083
:1029D000CF01DF91CF9108950F931F93CF93DF9392
:1029E000009709F48CC0FC01329713821282009187
:1029F0000F06109110060115110581F42081318117
:102A0000820F931F20910D0630910E06281739076B
:102A100079F5F0930E06E0930D0671C0D80140E001
:102A200050E0AE17BF0750F412962D913C911397CA
:102A3000AD012115310509F1D901F3CF9D01DA016D
:102A40003383228360817181860F971F82179307DA
:102A500069F4EC0128813981260F371F2E5F3F4F23
:102A6000318320838A819B8193838283452B29F440
:102A7000F0931006E0930F0642C01396FC93EE937A
:102A80001297ED01499159919E01240F351FE217CC
:102A9000F30771F480819181840F951F029611963E
:102AA0009C938E938281938113969C938E9312971D
:102AB000E0E0F0E0D80112968D919C911397009779
:102AC00019F0F8018C01F6CF8D919C9198012E5F41
:102AD0003F4F820F931F20910D0630910E0628174D
:102AE000390769F4309729F41092100610920F06F6
:102AF00002C01382128210930E0600930D06DF911E
:102B0000CF911F910F910895A0E0B0E0EAE8F5E1C0
:102B10000C946016EC01009721F4CB010E9457142D
:102B2000B8C0FC01E60FF71F9C0122503109E217E3
:102B3000F30708F4ACC0D9010D911C911197061749
:102B40001707B0F00530110508F49FC0C8010497BD
:102B50008617970708F499C002501109061B170B36
:102B6000019311936D937C93CF010E94EC148DC05F
:102B70005B01A01AB10A4C01800E911EA0910F06B4
:102B8000B091100640E050E0E12CF12C109709F4D0
:102B90004AC0A815B905D1F56D907C9011976301D5
:102BA00082E0C80ED11CCA14DB0480F1A3014A19CB
:102BB0005B096A0182E0C80ED11C1296BC90129784
:102BC0001396AC91B5E0CB16D10440F0B282A3834A
:102BD00051834083D9016D937C930AC00E5F1F4FD0
:102BE000C301800F911FF90191838083EB2DFA2F90
:102BF000E114F10431F0D7011396FC93EE93129790
:102C000044C0F0931006E0930F063FC08D919C9155
:102C100011974817590708F4AC017D0112960D90E1
:102C2000BC91A02DB3CF80910D0690910E06881512
:102C30009905E1F446175707C8F480910601909171
:102C40000701009741F48DB79EB740910A0150915A
:102C50000B01841B950BE817F907C8F4F0930E06D7
:102C6000E0930D06F901718360830FC0CB010E94D0
:102C700057147C01009759F0A801BE010E94531619
:102C8000CE010E94EC14C70104C0CE0102C080E056
:102C900090E0CDB7DEB7EEE00C947C1681E090E0DA
:102CA000F8940C94B516FB01DC0102C001900D9262
:102CB00041505040D8F708952F923F924F925F9223
:102CC0006F927F928F929F92AF92BF92CF92DF923C
:102CD000EF92FF920F931F93CF93DF93CDB7DEB7A1
:102CE000CA1BDB0B0FB6F894DEBF0FBECDBF099435
:102CF0002A88398848885F846E847D848C849B848C
:102D0000AA84B984C884DF80EE80FD800C811B8199
:102D1000AA81B981CE0FD11D0FB6F894DEBF0FBEC8
:102D2000CDBFED010895A1E21A2EAA1BBB1BFD0128
:102D30000DC0AA1FBB1FEE1FFF1FA217B307E4079A
:102D4000F50720F0A21BB30BE40BF50B661F771FF2
:102D5000881F991F1A9469F76095709580959095D2
:0E2D60009B01AC01BD01CF010895F894FFCF97
:102D6E0000AABBCCDEFA00001106800001000000B4
:102D7E0001005E000000C33C33CE3EE3EC000000D9
:102D8E0000E6076207AF078D07A1072D08000000B8
:102D9E00007E087E087E087E087E087E087E087EFD
:102DAE00087E087E087E087E087E087E087E087EE5
:102DBE0008000000007E0862077E087E087E087EFE
:102DCE0008000000007E0862070000000091006FFE
:102DDE0002A700E500D80190007E030E013C03B16E
:102DEE00030A03FB01C600BF00AF00AB0053010096
:102DFE00000000DE08000000007E08546F6B656E58
:102E0E00200053657475702066696E697368656419
:102E1E00005B4F44454252414E4F2050414B494575
:102E2E00545D00446C75676F73632070616B6965E8
:102E3E0074755B425D3A20005AB37920666F726DED
:102E4E006174206E6167B3F3776B61005665723AF9
:102E5E000900547970653A0900544B4C3A09004305
:102E6E006F64653A0900546F6B656E3A09307800ED
:102E7E004F7074696F6E206E756D6265723A0900DF
:102E8E004F7074696F6E733A2000094C656E6774EB
:102E9E00683A200009547970653A20000956616C31
:102EAE0075653A20005061796C6F6164206C656EB7
:102EBE006774683A09005061796C6F61643A090071
:0C2ECE0070696E6700474554000D0A0053
:107E0000112484B714BE81FFF0D085E080938100F7
:107E100082E08093C00088E18093C10086E0809377
:107E2000C20080E18093C4008EE0C9D0259A86E02C
:107E300020E33CEF91E0309385002093840096BBD3
:107E4000B09BFECF1D9AA8958150A9F7CC24DD24C4
:107E500088248394B5E0AB2EA1E19A2EF3E0BF2EE7
:107E6000A2D0813461F49FD0082FAFD0023811F036
:107E7000013811F484E001C083E08DD089C08234E0
:107E800011F484E103C0853419F485E0A6D080C0E4
:107E9000853579F488D0E82EFF2485D0082F10E0AE
:107EA000102F00270E291F29000F111F8ED06801E7
:107EB0006FC0863521F484E090D080E0DECF843638
:107EC00009F040C070D06FD0082F6DD080E0C81688
:107ED00080E7D80618F4F601B7BEE895C0E0D1E017
:107EE00062D089930C17E1F7F0E0CF16F0E7DF06D8
:107EF00018F0F601B7BEE89568D007B600FCFDCFD4
:107F0000A601A0E0B1E02C9130E011968C91119780
:107F100090E0982F8827822B932B1296FA010C0160
:107F200087BEE89511244E5F5F4FF1E0A038BF0790
:107F300051F7F601A7BEE89507B600FCFDCF97BE46
:107F4000E89526C08437B1F42ED02DD0F82E2BD052
:107F50003CD0F601EF2C8F010F5F1F4F84911BD097
:107F6000EA94F801C1F70894C11CD11CFA94CF0C13
:107F7000D11C0EC0853739F428D08EE10CD085E9AC
:107F80000AD08FE07ACF813511F488E018D01DD067
:107F900080E101D065CF982F8091C00085FFFCCF94
:107FA0009093C60008958091C00087FFFCCF809118
:107FB000C00084FD01C0A8958091C6000895E0E648
:107FC000F0E098E1908380830895EDDF803219F02E
:107FD00088E0F5DFFFCF84E1DECF1F93182FE3DFCA
:107FE0001150E9F7F2DF1F91089580E0E8DFEE27F6
:047FF000FF270994CA
:027FFE00040479
:0400000300007E007B
:00000001FF
